{
  "contractName": "LinkedList",
  "abi": [
    {
      "anonymous": false,
      "inputs": [
        {
          "indexed": false,
          "internalType": "bytes32",
          "name": "nextId",
          "type": "bytes32"
        },
        {
          "indexed": false,
          "internalType": "bytes32",
          "name": "previousId",
          "type": "bytes32"
        },
        {
          "indexed": false,
          "internalType": "uint256",
          "name": "value",
          "type": "uint256"
        }
      ],
      "name": "Add",
      "type": "event"
    },
    {
      "inputs": [],
      "name": "headId",
      "outputs": [
        {
          "internalType": "bytes32",
          "name": "",
          "type": "bytes32"
        }
      ],
      "stateMutability": "view",
      "type": "function",
      "constant": true
    },
    {
      "inputs": [],
      "name": "length",
      "outputs": [
        {
          "internalType": "uint256",
          "name": "",
          "type": "uint256"
        }
      ],
      "stateMutability": "view",
      "type": "function",
      "constant": true
    },
    {
      "inputs": [
        {
          "internalType": "bytes32",
          "name": "",
          "type": "bytes32"
        }
      ],
      "name": "nodes",
      "outputs": [
        {
          "internalType": "uint256",
          "name": "value",
          "type": "uint256"
        },
        {
          "internalType": "bytes32",
          "name": "next",
          "type": "bytes32"
        },
        {
          "internalType": "bytes32",
          "name": "previous",
          "type": "bytes32"
        }
      ],
      "stateMutability": "view",
      "type": "function",
      "constant": true
    },
    {
      "inputs": [],
      "name": "tailId",
      "outputs": [
        {
          "internalType": "bytes32",
          "name": "",
          "type": "bytes32"
        }
      ],
      "stateMutability": "view",
      "type": "function",
      "constant": true
    },
    {
      "inputs": [
        {
          "internalType": "uint256",
          "name": "afterValue",
          "type": "uint256"
        },
        {
          "internalType": "uint256",
          "name": "_value",
          "type": "uint256"
        }
      ],
      "name": "addAfter",
      "outputs": [],
      "stateMutability": "nonpayable",
      "type": "function"
    },
    {
      "inputs": [
        {
          "internalType": "uint256",
          "name": "_value",
          "type": "uint256"
        }
      ],
      "name": "addLast",
      "outputs": [],
      "stateMutability": "nonpayable",
      "type": "function"
    },
    {
      "inputs": [
        {
          "internalType": "uint256",
          "name": "_value",
          "type": "uint256"
        }
      ],
      "name": "addFirst",
      "outputs": [],
      "stateMutability": "nonpayable",
      "type": "function"
    },
    {
      "inputs": [
        {
          "internalType": "uint256",
          "name": "_value",
          "type": "uint256"
        }
      ],
      "name": "remove",
      "outputs": [
        {
          "internalType": "bool",
          "name": "",
          "type": "bool"
        }
      ],
      "stateMutability": "nonpayable",
      "type": "function"
    },
    {
      "inputs": [],
      "name": "removeFirst",
      "outputs": [],
      "stateMutability": "nonpayable",
      "type": "function"
    },
    {
      "inputs": [],
      "name": "removeLast",
      "outputs": [],
      "stateMutability": "nonpayable",
      "type": "function"
    },
    {
      "inputs": [
        {
          "internalType": "uint256",
          "name": "_value",
          "type": "uint256"
        }
      ],
      "name": "contain",
      "outputs": [
        {
          "internalType": "bool",
          "name": "",
          "type": "bool"
        }
      ],
      "stateMutability": "view",
      "type": "function",
      "constant": true
    },
    {
      "inputs": [],
      "name": "clear",
      "outputs": [],
      "stateMutability": "nonpayable",
      "type": "function"
    },
    {
      "inputs": [],
      "name": "getValues",
      "outputs": [
        {
          "internalType": "string",
          "name": "",
          "type": "string"
        }
      ],
      "stateMutability": "view",
      "type": "function",
      "constant": true
    }
  ],
  "bytecode": "0x608060405260006003556000801b60045534801561001c57600080fd5b506112f48061002c6000396000f3fe608060405234801561001057600080fd5b50600436106100cf5760003560e01c80637c335b411161008c578063d092e18611610066578063d092e186146101c8578063d1f62fa1146101d2578063d86e697d14610202578063e69a48a414610234576100cf565b80637c335b4114610186578063920a920a146101a25780639380d93f146101ac576100cf565b806315d6f1a8146100d457806319eb4a90146100f25780631f7b6d321461011057806320dd22be1461012e5780634cc822151461014c57806352efea6e1461017c575b600080fd5b6100dc610250565b6040516100e99190610cc4565b60405180910390f35b6100fa610256565b6040516101079190610d78565b60405180910390f35b6101186102de565b6040516101259190610db3565b60405180910390f35b6101366102e4565b6040516101439190610cc4565b60405180910390f35b61016660048036038101906101619190610dff565b6102ea565b6040516101739190610e47565b60405180910390f35b61018461047a565b005b6101a0600480360381019061019b9190610dff565b6104fa565b005b6101aa610625565b005b6101c660048036038101906101c19190610dff565b6106e7565b005b6101d0610813565b005b6101ec60048036038101906101e79190610dff565b6108d2565b6040516101f99190610e47565b60405180910390f35b61021c60048036038101906102179190610e8e565b610934565b60405161022b93929190610ebb565b60405180910390f35b61024e60048036038101906102499190610ef2565b61095e565b005b60015481565b6060600060015490506060805b60045483146102d55760006002600085815260200190815260200160002090506102908160000154610afc565b915082826040516020016102a5929190610fba565b60405160208183030381529060405292506002600085815260200190815260200160002060010154935050610263565b81935050505090565b60035481565b60005481565b60008060015490505b600454811461046f57826002600083815260200190815260200160002060000154036104515760045460026000838152602001908152602001600020600201541461043e5760026000828152602001908152602001600020600101546002600060026000858152602001908152602001600020600201548152602001908152602001600020600101819055506004546002600083815260200190815260200160002060010154036103ab576103a6610813565b610439565b6002600082815260200190815260200160002060020154600260006002600085815260200190815260200160002060010154815260200190815260200160002060020181905550600260008281526020019081526020016000206000808201600090556001820160009055600282016000905550506003600081548092919061043390611018565b91905055505b610447565b610446610625565b5b6001915050610475565b600260008281526020019081526020016000206001015490506102f3565b60009150505b919050565b6000600154905060005b60045482146104dc576002600083815260200190815260200160002060010154905060026000838152602001908152602001600020600080820160009055600182016000905560028201600090555050809150610484565b60045460018190555060045460008190555060006003819055505050565b600060405180606001604052808381526020016004548152602001600054815250905060008160000151826040015160405160200161053a929190611083565b6040516020818303038152906040528051906020012090506000600354036105685780600181905550610585565b806002600080548152602001908152602001600020600101819055505b806000819055508160026000838152602001908152602001600020600082015181600001556020820151816001015560408201518160020155905050600360008154809291906105d4906110af565b91905055507f9d0bb79803f182fd5c24b36e49a309951e5c2a7b05a2ca392835293a4dce0f11826020015183604001518460000151604051610618939291906110f7565b60405180910390a1505050565b6000600354146106e5576002600060015481526020019081526020016000206001015460018190555060026000600260006001548152602001908152602001600020600201548152602001908152602001600020600080820160009055600182016000905560028201600090555050600360008154809291906106a790611018565b91905055506000600354036106c4576004546000819055506106e4565b600454600260006001548152602001908152602001600020600201819055505b5b565b6000604051806060016040528083815260200160015481526020016004548152509050600081600001518260400151604051602001610727929190611083565b6040516020818303038152906040528051906020012090506000600354036107555780600081905550610773565b80600260006001548152602001908152602001600020600201819055505b806001819055508160026000838152602001908152602001600020600082015181600001556020820151816001015560408201518160020155905050600360008154809291906107c2906110af565b91905055507f9d0bb79803f182fd5c24b36e49a309951e5c2a7b05a2ca392835293a4dce0f11826020015183604001518460000151604051610806939291906110f7565b60405180910390a1505050565b6000600354146108d0576002600080548152602001908152602001600020600201546000819055506002600060026000805481526020019081526020016000206001015481526020019081526020016000206000808201600090556001820160009055600282016000905550506003600081548092919061089390611018565b91905055506000600354036108b0576004546001819055506108cf565b6004546002600080548152602001908152602001600020600101819055505b5b565b60008060015490505b6004548114610929578260026000838152602001908152602001600020600001540361090b57600191505061092f565b600260008281526020019081526020016000206001015490506108db565b60009150505b919050565b60026020528060005260406000206000915090508060000154908060010154908060020154905083565b60006001549050600061096f610c84565b5b6004548314610aeb5784600260008581526020019081526020016000206000015403610acd57600454600260008581526020019081526020016000206001015414610abc5760405180606001604052808581526020016002600086815260200190815260200160002060010154815260200184815250905080600001518160400151604051602001610a03929190611083565b60405160208183030381529060405280519060200120915081600260006002600087815260200190815260200160002060010154815260200190815260200160002060020181905550816002600085815260200190815260200160002060010181905550806002600084815260200190815260200160002060008201518160000155602082015181600101556040820151816002015590505060036000815480929190610aaf906110af565b9190505550505050610af8565b610ac5846104fa565b505050610af8565b60026000848152602001908152602001600020600101549250610970565b610af4846104fa565b5050505b5050565b606060008203610b43576040518060400160405280600181526020017f30000000000000000000000000000000000000000000000000000000000000008152509050610c7f565b600082905060005b60008214610b75578080610b5e906110af565b915050600a82610b6e919061115d565b9150610b4b565b60008167ffffffffffffffff811115610b9157610b9061118e565b5b6040519080825280601f01601f191660200182016040528015610bc35781602001600182028036833780820191505090505b50905060008290505b60008614610c7757600181610be191906111bd565b90506000600a8088610bf3919061115d565b610bfd91906111f1565b87610c0891906111bd565b6030610c149190611258565b905060008160f81b905080848481518110610c3257610c3161128f565b5b60200101907effffffffffffffffffffffffffffffffffffffffffffffffffffffffffffff1916908160001a905350600a88610c6e919061115d565b97505050610bcc565b819450505050505b919050565b60405180606001604052806000815260200160008019168152602001600080191681525090565b6000819050919050565b610cbe81610cab565b82525050565b6000602082019050610cd96000830184610cb5565b92915050565b600081519050919050565b600082825260208201905092915050565b60005b83811015610d19578082015181840152602081019050610cfe565b83811115610d28576000848401525b50505050565b6000601f19601f8301169050919050565b6000610d4a82610cdf565b610d548185610cea565b9350610d64818560208601610cfb565b610d6d81610d2e565b840191505092915050565b60006020820190508181036000830152610d928184610d3f565b905092915050565b6000819050919050565b610dad81610d9a565b82525050565b6000602082019050610dc86000830184610da4565b92915050565b600080fd5b610ddc81610d9a565b8114610de757600080fd5b50565b600081359050610df981610dd3565b92915050565b600060208284031215610e1557610e14610dce565b5b6000610e2384828501610dea565b91505092915050565b60008115159050919050565b610e4181610e2c565b82525050565b6000602082019050610e5c6000830184610e38565b92915050565b610e6b81610cab565b8114610e7657600080fd5b50565b600081359050610e8881610e62565b92915050565b600060208284031215610ea457610ea3610dce565b5b6000610eb284828501610e79565b91505092915050565b6000606082019050610ed06000830186610da4565b610edd6020830185610cb5565b610eea6040830184610cb5565b949350505050565b60008060408385031215610f0957610f08610dce565b5b6000610f1785828601610dea565b9250506020610f2885828601610dea565b9150509250929050565b600081905092915050565b6000610f4882610cdf565b610f528185610f32565b9350610f62818560208601610cfb565b80840191505092915050565b7f2000000000000000000000000000000000000000000000000000000000000000600082015250565b6000610fa4600183610f32565b9150610faf82610f6e565b600182019050919050565b6000610fc68285610f3d565b9150610fd28284610f3d565b9150610fdd82610f97565b91508190509392505050565b7f4e487b7100000000000000000000000000000000000000000000000000000000600052601160045260246000fd5b600061102382610d9a565b91506000820361103657611035610fe9565b5b600182039050919050565b6000819050919050565b61105c61105782610d9a565b611041565b82525050565b6000819050919050565b61107d61107882610cab565b611062565b82525050565b600061108f828561104b565b60208201915061109f828461106c565b6020820191508190509392505050565b60006110ba82610d9a565b91507fffffffffffffffffffffffffffffffffffffffffffffffffffffffffffffffff82036110ec576110eb610fe9565b5b600182019050919050565b600060608201905061110c6000830186610cb5565b6111196020830185610cb5565b6111266040830184610da4565b949350505050565b7f4e487b7100000000000000000000000000000000000000000000000000000000600052601260045260246000fd5b600061116882610d9a565b915061117383610d9a565b9250826111835761118261112e565b5b828204905092915050565b7f4e487b7100000000000000000000000000000000000000000000000000000000600052604160045260246000fd5b60006111c882610d9a565b91506111d383610d9a565b9250828210156111e6576111e5610fe9565b5b828203905092915050565b60006111fc82610d9a565b915061120783610d9a565b9250817fffffffffffffffffffffffffffffffffffffffffffffffffffffffffffffffff04831182151516156112405761123f610fe9565b5b828202905092915050565b600060ff82169050919050565b60006112638261124b565b915061126e8361124b565b92508260ff0382111561128457611283610fe9565b5b828201905092915050565b7f4e487b7100000000000000000000000000000000000000000000000000000000600052603260045260246000fdfea2646970667358221220749a99374761bdde64e7efb39de830a19f14f664aad1923f389a08175a1f55e264736f6c634300080d0033",
  "immutableReferences": {},
  "source": "// SPDX-License-Identifier: MIT\npragma solidity >=0.4.22 <0.9.0;\n\nimport \"./LinkedListNode.sol\";\n\ncontract LinkedList {\n\n  event Add(bytes32 nextId, bytes32 previousId, uint value);\n  \n  bytes32 public tailId; \n  bytes32 public headId; \n  mapping(bytes32 => LinkedListNode.Node) public nodes;\n  uint public length = 0;\n\n  bytes32 private NULL = 0x00; \n\n  function addAfter(uint afterValue, uint _value) public{\n    bytes32 current = headId;\n    bytes32 id;\n    LinkedListNode.Node memory node;\n    while(current != NULL){\n      if(nodes[current].value == afterValue){\n        if(nodes[current].next != NULL){\n          node = LinkedListNode.Node(_value, nodes[current].next, current);\n          id = keccak256(abi.encodePacked(node.value, node.previous));\n          nodes[nodes[current].next].previous = id;\n          nodes[current].next = id;\n          nodes[id] = node;\n          length++;\n          return;\n        }\n        else\n        {\n          addLast(_value);\n          return;\n        }\n      }\n      current = nodes[current].next;\n    }\n    addLast(_value);\n  }\n\n  function addLast(uint _value) public {\n    LinkedListNode.Node memory node = LinkedListNode.Node(_value, NULL, tailId);\n    bytes32 currentId = keccak256(abi.encodePacked(node.value, node.previous));\n    if(length == 0)\n      headId = currentId;\n    else\n      nodes[tailId].next = currentId;\n    \n    tailId = currentId;\n    nodes[currentId] = node;\n    length++;\n    emit Add(node.next, node.previous, node.value);\n  }\n\n  function addFirst(uint _value) public {\n    LinkedListNode.Node memory node = LinkedListNode.Node(_value, headId, NULL);\n    bytes32 currentId = keccak256(abi.encodePacked(node.value, node.previous));\n    if(length == 0)\n      tailId = currentId;\n    else\n      nodes[headId].previous = currentId;\n    \n    headId = currentId;\n    nodes[currentId] = node;\n    length++;\n    emit Add(node.next, node.previous, node.value);\n  }\n\n  function remove(uint _value) public returns(bool){\n    bytes32 current = headId;\n    while(current != NULL){\n      if(nodes[current].value == _value){\n        // Middle or last element\n        if(nodes[current].previous != NULL){\n          nodes[nodes[current].previous].next = nodes[current].next;\n          \n          if(nodes[current].next == NULL) // Last elem\n            removeLast();\n          else{ // Middle elem\n            nodes[nodes[current].next].previous = nodes[current].previous;\n            delete nodes[current];\n            length--;\n          }\n        }\n        else\n          removeFirst();\n        return true;\n      }\n      current = nodes[current].next;\n    }\n    return false;\n  }\n\n  function removeFirst() public{\n    if(length != 0){\n      headId = nodes[headId].next;\n\n      delete nodes[nodes[headId].previous];\n      length--;\n\n      if(length == 0)\n        tailId = NULL;\n      else\n        nodes[headId].previous = NULL;\n    }\n  }\n\n  function removeLast() public{\n    if(length != 0){\n      tailId = nodes[tailId].previous;\n\n      delete nodes[nodes[tailId].next];\n      length--;\n\n      if(length == 0)\n        headId = NULL;\n      else\n        nodes[tailId].next = NULL;\n    }\n  }\n\n  function contain(uint _value) public view returns(bool){\n    bytes32 current = headId;\n    while(current != NULL){\n      if(nodes[current].value == _value)\n        return true;\n      \n      current = nodes[current].next;\n    }\n    return false;\n  }\n  \n  function clear() public {\n    bytes32 current = headId;\n    bytes32 next;\n    while(current != NULL){\n      next = nodes[current].next;\n      delete nodes[current];\n      current = next;\n    }\n    headId = NULL;\n    tailId = NULL;\n    length = 0;\n  }\n\n  function getValues() public view returns(string memory){\n    bytes32 current = headId;\n    string memory result;\n    string memory temp;\n    while(current != NULL){\n      LinkedListNode.Node storage node = nodes[current];\n      temp = uint2str(node.value);\n      result = string(abi.encodePacked(result, temp, \" \"));\n      current = nodes[current].next;\n    }\n    return result;\n  }\n\n  function uint2str(uint _i) internal pure returns (string memory _uintAsString) {\n        if (_i == 0) {\n            return \"0\";\n        }\n        uint j = _i;\n        uint len;\n        while (j != 0) {\n            len++;\n            j /= 10;\n        }\n        bytes memory bstr = new bytes(len);\n        uint k = len;\n        while (_i != 0) {\n            k = k-1;\n            uint8 temp = (48 + uint8(_i - _i / 10 * 10));\n            bytes1 b1 = bytes1(temp);\n            bstr[k] = b1;\n            _i /= 10;\n        }\n        return string(bstr);\n    }\n}\n",
  "sourcePath": "C:\\MainFolder\\Education\\Solidity\\LinkedList\\contracts\\LinkedList.sol",
  "compiler": {
    "name": "solc",
    "version": "0.8.13+commit.abaa5c0e.Emscripten.clang"
  },
  "schemaVersion": "3.4.7",
  "updatedAt": "2022-06-20T21:23:18.314Z",
  "networkType": "ethereum",
  "devdoc": {
    "kind": "dev",
    "methods": {},
    "version": 1
  },
  "userdoc": {
    "kind": "user",
    "methods": {},
    "version": 1
  }
}